{
  "contractName": "Sale",
  "abi": [
    {
      "constant": true,
      "inputs": [],
      "name": "creator",
      "outputs": [
        {
          "name": "",
          "type": "address"
        }
      ],
      "payable": false,
      "stateMutability": "view",
      "type": "function"
    },
    {
      "constant": true,
      "inputs": [
        {
          "name": "",
          "type": "address"
        }
      ],
      "name": "heldTimeline",
      "outputs": [
        {
          "name": "",
          "type": "uint256"
        }
      ],
      "payable": false,
      "stateMutability": "view",
      "type": "function"
    },
    {
      "constant": true,
      "inputs": [],
      "name": "endBlock",
      "outputs": [
        {
          "name": "",
          "type": "uint256"
        }
      ],
      "payable": false,
      "stateMutability": "view",
      "type": "function"
    },
    {
      "constant": true,
      "inputs": [],
      "name": "isFunding",
      "outputs": [
        {
          "name": "",
          "type": "bool"
        }
      ],
      "payable": false,
      "stateMutability": "view",
      "type": "function"
    },
    {
      "constant": true,
      "inputs": [],
      "name": "ETHWallet",
      "outputs": [
        {
          "name": "",
          "type": "address"
        }
      ],
      "payable": false,
      "stateMutability": "view",
      "type": "function"
    },
    {
      "constant": true,
      "inputs": [],
      "name": "maxMintable",
      "outputs": [
        {
          "name": "",
          "type": "uint256"
        }
      ],
      "payable": false,
      "stateMutability": "view",
      "type": "function"
    },
    {
      "constant": true,
      "inputs": [],
      "name": "exchangeRate",
      "outputs": [
        {
          "name": "",
          "type": "uint256"
        }
      ],
      "payable": false,
      "stateMutability": "view",
      "type": "function"
    },
    {
      "constant": true,
      "inputs": [],
      "name": "startBlock",
      "outputs": [
        {
          "name": "",
          "type": "uint256"
        }
      ],
      "payable": false,
      "stateMutability": "view",
      "type": "function"
    },
    {
      "constant": false,
      "inputs": [
        {
          "name": "rate",
          "type": "uint256"
        }
      ],
      "name": "updateRate",
      "outputs": [],
      "payable": false,
      "stateMutability": "nonpayable",
      "type": "function"
    },
    {
      "constant": false,
      "inputs": [],
      "name": "releaseHeldCoins",
      "outputs": [],
      "payable": false,
      "stateMutability": "nonpayable",
      "type": "function"
    },
    {
      "constant": false,
      "inputs": [
        {
          "name": "_creator",
          "type": "address"
        }
      ],
      "name": "changeCreator",
      "outputs": [],
      "payable": false,
      "stateMutability": "nonpayable",
      "type": "function"
    },
    {
      "constant": true,
      "inputs": [],
      "name": "totalMinted",
      "outputs": [
        {
          "name": "",
          "type": "uint256"
        }
      ],
      "payable": false,
      "stateMutability": "view",
      "type": "function"
    },
    {
      "constant": true,
      "inputs": [
        {
          "name": "_address",
          "type": "address"
        }
      ],
      "name": "getHeldCoin",
      "outputs": [
        {
          "name": "",
          "type": "uint256"
        }
      ],
      "payable": false,
      "stateMutability": "view",
      "type": "function"
    },
    {
      "constant": true,
      "inputs": [],
      "name": "heldTotal",
      "outputs": [
        {
          "name": "",
          "type": "uint256"
        }
      ],
      "payable": false,
      "stateMutability": "view",
      "type": "function"
    },
    {
      "constant": false,
      "inputs": [
        {
          "name": "_allowed",
          "type": "bool"
        }
      ],
      "name": "changeTransferStats",
      "outputs": [],
      "payable": false,
      "stateMutability": "nonpayable",
      "type": "function"
    },
    {
      "constant": true,
      "inputs": [],
      "name": "Token",
      "outputs": [
        {
          "name": "",
          "type": "address"
        }
      ],
      "payable": false,
      "stateMutability": "view",
      "type": "function"
    },
    {
      "constant": false,
      "inputs": [],
      "name": "contribute",
      "outputs": [],
      "payable": true,
      "stateMutability": "payable",
      "type": "function"
    },
    {
      "constant": true,
      "inputs": [
        {
          "name": "",
          "type": "address"
        }
      ],
      "name": "heldTokens",
      "outputs": [
        {
          "name": "",
          "type": "uint256"
        }
      ],
      "payable": false,
      "stateMutability": "view",
      "type": "function"
    },
    {
      "constant": false,
      "inputs": [],
      "name": "closeSale",
      "outputs": [],
      "payable": false,
      "stateMutability": "nonpayable",
      "type": "function"
    },
    {
      "constant": false,
      "inputs": [
        {
          "name": "token_address",
          "type": "address"
        },
        {
          "name": "end_block",
          "type": "uint256"
        }
      ],
      "name": "setup",
      "outputs": [],
      "payable": false,
      "stateMutability": "nonpayable",
      "type": "function"
    },
    {
      "inputs": [
        {
          "name": "_wallet",
          "type": "address"
        }
      ],
      "payable": false,
      "stateMutability": "nonpayable",
      "type": "constructor"
    },
    {
      "payable": true,
      "stateMutability": "payable",
      "type": "fallback"
    },
    {
      "anonymous": false,
      "inputs": [
        {
          "indexed": false,
          "name": "from",
          "type": "address"
        },
        {
          "indexed": false,
          "name": "amount",
          "type": "uint256"
        }
      ],
      "name": "Contribution",
      "type": "event"
    },
    {
      "anonymous": false,
      "inputs": [
        {
          "indexed": false,
          "name": "from",
          "type": "address"
        },
        {
          "indexed": false,
          "name": "amount",
          "type": "uint256"
        }
      ],
      "name": "ReleaseTokens",
      "type": "event"
    }
  ],
  "bytecode": "0x6060604052341561000f57600080fd5b604051602080620013e983398101604052808051906020019091905050436003819055506a034f086f3b33b68400000060008190555080600660006101000a81548173ffffffffffffffffffffffffffffffffffffffff021916908373ffffffffffffffffffffffffffffffffffffffff1602179055506001600560006101000a81548160ff02191690831515021790555033600860016101000a81548173ffffffffffffffffffffffffffffffffffffffff021916908373ffffffffffffffffffffffffffffffffffffffff1602179055506100fd61010c6401000000000261104a176401000000009004565b61025860048190555050610254565b61012b336103e86101a3640100000000026110a8176401000000009004565b610166734f70dc5da5acf5e71905c3a8473a6d8a7e7ba4c569152d02c7e14af68000006101a3640100000000026110a8176401000000009004565b6101a173393c82c7ae55b48775f4eccd2523450d291f241869152d02c7e14af68000006101a3640100000000026110a8176401000000009004565b565b80600960008473ffffffffffffffffffffffffffffffffffffffff1673ffffffffffffffffffffffffffffffffffffffff1681526020019081526020016000208190555060004301600a60008473ffffffffffffffffffffffffffffffffffffffff1673ffffffffffffffffffffffffffffffffffffffff16815260200190815260200160002081905550806007600082825401925050819055506007546001600082825401925050819055505050565b61118580620002646000396000f300606060405260043610610112576000357c0100000000000000000000000000000000000000000000000000000000900463ffffffff16806302d05d3f14610339578063065fe24f1461038e578063083c6323146103db57806313b53153146104045780631a30ec13146104315780632154dc39146104865780633ba0b9a9146104af57806348cd4cb1146104d857806369ea1771146105015780636ce5b3cf1461052457806374580e2f14610539578063a2309ff814610572578063a4e6a2311461059b578063b3097a08146105e8578063b602a91714610611578063c241267614610636578063d7bb99ba1461068b578063de0099a314610695578063ee55efee146106e2578063f46d1982146106f7575b60008060003411151561012457600080fd5b600560009054906101000a900460ff16151561013f57600080fd5b600254431115151561015057600080fd5b6004543402915081600154019050600054811115151561016f57600080fd5b80600160008282540192505081905550600660009054906101000a900473ffffffffffffffffffffffffffffffffffffffff1673ffffffffffffffffffffffffffffffffffffffff166108fc349081150290604051600060405180830381858888f1935050505015156101e157600080fd5b600560019054906101000a900473ffffffffffffffffffffffffffffffffffffffff1673ffffffffffffffffffffffffffffffffffffffff166379c6506833846000604051602001526040518363ffffffff167c0100000000000000000000000000000000000000000000000000000000028152600401808373ffffffffffffffffffffffffffffffffffffffff1673ffffffffffffffffffffffffffffffffffffffff16815260200182815260200192505050602060405180830381600087803b15156102ae57600080fd5b6102c65a03f115156102bf57600080fd5b50505060405180519050507f4d154d4aae216bed6d0926db77c00df2b57c6b5ba4eee05775de20facede3a7b3383604051808373ffffffffffffffffffffffffffffffffffffffff1673ffffffffffffffffffffffffffffffffffffffff1681526020018281526020019250505060405180910390a15050005b341561034457600080fd5b61034c610739565b604051808273ffffffffffffffffffffffffffffffffffffffff1673ffffffffffffffffffffffffffffffffffffffff16815260200191505060405180910390f35b341561039957600080fd5b6103c5600480803573ffffffffffffffffffffffffffffffffffffffff1690602001909190505061075f565b6040518082815260200191505060405180910390f35b34156103e657600080fd5b6103ee610777565b6040518082815260200191505060405180910390f35b341561040f57600080fd5b61041761077d565b604051808215151515815260200191505060405180910390f35b341561043c57600080fd5b610444610790565b604051808273ffffffffffffffffffffffffffffffffffffffff1673ffffffffffffffffffffffffffffffffffffffff16815260200191505060405180910390f35b341561049157600080fd5b6104996107b6565b6040518082815260200191505060405180910390f35b34156104ba57600080fd5b6104c26107bc565b6040518082815260200191505060405180910390f35b34156104e357600080fd5b6104eb6107c2565b6040518082815260200191505060405180910390f35b341561050c57600080fd5b61052260048080359060200190919050506107c8565b005b341561052f57600080fd5b610537610849565b005b341561054457600080fd5b610570600480803573ffffffffffffffffffffffffffffffffffffffff16906020019091905050610aed565b005b341561057d57600080fd5b610585610b8d565b6040518082815260200191505060405180910390f35b34156105a657600080fd5b6105d2600480803573ffffffffffffffffffffffffffffffffffffffff16906020019091905050610b93565b6040518082815260200191505060405180910390f35b34156105f357600080fd5b6105fb610bdc565b6040518082815260200191505060405180910390f35b341561061c57600080fd5b61063460048080351515906020019091905050610be2565b005b341561064157600080fd5b610649610ce9565b604051808273ffffffffffffffffffffffffffffffffffffffff1673ffffffffffffffffffffffffffffffffffffffff16815260200191505060405180910390f35b610693610d0f565b005b34156106a057600080fd5b6106cc600480803573ffffffffffffffffffffffffffffffffffffffff16906020019091905050610f36565b6040518082815260200191505060405180910390f35b34156106ed57600080fd5b6106f5610f4e565b005b341561070257600080fd5b610737600480803573ffffffffffffffffffffffffffffffffffffffff16906020019091908035906020019091905050610fc7565b005b600860019054906101000a900473ffffffffffffffffffffffffffffffffffffffff1681565b600a6020528060005260406000206000915090505481565b60025481565b600560009054906101000a900460ff1681565b600660009054906101000a900473ffffffffffffffffffffffffffffffffffffffff1681565b60005481565b60045481565b60035481565b600860019054906101000a900473ffffffffffffffffffffffffffffffffffffffff1673ffffffffffffffffffffffffffffffffffffffff163373ffffffffffffffffffffffffffffffffffffffff1614151561082457600080fd5b600560009054906101000a900460ff16151561083f57600080fd5b8060048190555050565b600080600960003373ffffffffffffffffffffffffffffffffffffffff1673ffffffffffffffffffffffffffffffffffffffff168152602001908152602001600020549150600a60003373ffffffffffffffffffffffffffffffffffffffff1673ffffffffffffffffffffffffffffffffffffffff168152602001908152602001600020549050600560009054906101000a900460ff161515156108ec57600080fd5b600082101515156108fc57600080fd5b80431015151561090b57600080fd5b6000600960003373ffffffffffffffffffffffffffffffffffffffff1673ffffffffffffffffffffffffffffffffffffffff168152602001908152602001600020819055506000600a60003373ffffffffffffffffffffffffffffffffffffffff1673ffffffffffffffffffffffffffffffffffffffff16815260200190815260200160002081905550600560019054906101000a900473ffffffffffffffffffffffffffffffffffffffff1673ffffffffffffffffffffffffffffffffffffffff166379c6506833846000604051602001526040518363ffffffff167c0100000000000000000000000000000000000000000000000000000000028152600401808373ffffffffffffffffffffffffffffffffffffffff1673ffffffffffffffffffffffffffffffffffffffff16815260200182815260200192505050602060405180830381600087803b1515610a6257600080fd5b6102c65a03f11515610a7357600080fd5b50505060405180519050507fa739e4172366f5a78dcb29dc28f3b20e3071cfe83b0be85e9dc4365232eb6be93383604051808373ffffffffffffffffffffffffffffffffffffffff1673ffffffffffffffffffffffffffffffffffffffff1681526020018281526020019250505060405180910390a15050565b600860019054906101000a900473ffffffffffffffffffffffffffffffffffffffff1673ffffffffffffffffffffffffffffffffffffffff163373ffffffffffffffffffffffffffffffffffffffff16141515610b4957600080fd5b80600860016101000a81548173ffffffffffffffffffffffffffffffffffffffff021916908373ffffffffffffffffffffffffffffffffffffffff16021790555050565b60015481565b6000600960008373ffffffffffffffffffffffffffffffffffffffff1673ffffffffffffffffffffffffffffffffffffffff168152602001908152602001600020549050919050565b60075481565b600860019054906101000a900473ffffffffffffffffffffffffffffffffffffffff1673ffffffffffffffffffffffffffffffffffffffff163373ffffffffffffffffffffffffffffffffffffffff16141515610c3e57600080fd5b600560019054906101000a900473ffffffffffffffffffffffffffffffffffffffff1673ffffffffffffffffffffffffffffffffffffffff166309010e53826040518263ffffffff167c01000000000000000000000000000000000000000000000000000000000281526004018082151515158152602001915050600060405180830381600087803b1515610cd257600080fd5b6102c65a03f11515610ce357600080fd5b50505050565b600560019054906101000a900473ffffffffffffffffffffffffffffffffffffffff1681565b600080600034111515610d2157600080fd5b600560009054906101000a900460ff161515610d3c57600080fd5b6002544311151515610d4d57600080fd5b60045434029150816001540190506000548111151515610d6c57600080fd5b80600160008282540192505081905550600660009054906101000a900473ffffffffffffffffffffffffffffffffffffffff1673ffffffffffffffffffffffffffffffffffffffff166108fc349081150290604051600060405180830381858888f193505050501515610dde57600080fd5b600560019054906101000a900473ffffffffffffffffffffffffffffffffffffffff1673ffffffffffffffffffffffffffffffffffffffff166379c6506833846000604051602001526040518363ffffffff167c0100000000000000000000000000000000000000000000000000000000028152600401808373ffffffffffffffffffffffffffffffffffffffff1673ffffffffffffffffffffffffffffffffffffffff16815260200182815260200192505050602060405180830381600087803b1515610eab57600080fd5b6102c65a03f11515610ebc57600080fd5b50505060405180519050507f4d154d4aae216bed6d0926db77c00df2b57c6b5ba4eee05775de20facede3a7b3383604051808373ffffffffffffffffffffffffffffffffffffffff1673ffffffffffffffffffffffffffffffffffffffff1681526020018281526020019250505060405180910390a15050565b60096020528060005260406000206000915090505481565b600860019054906101000a900473ffffffffffffffffffffffffffffffffffffffff1673ffffffffffffffffffffffffffffffffffffffff163373ffffffffffffffffffffffffffffffffffffffff16141515610faa57600080fd5b6000600560006101000a81548160ff021916908315150217905550565b600860009054906101000a900460ff16151515610fe357600080fd5b81600560016101000a81548173ffffffffffffffffffffffffffffffffffffffff021916908373ffffffffffffffffffffffffffffffffffffffff160217905550806002819055506001600860006101000a81548160ff0219169083151502179055505050565b611056336103e86110a8565b61107e734f70dc5da5acf5e71905c3a8473a6d8a7e7ba4c569152d02c7e14af68000006110a8565b6110a673393c82c7ae55b48775f4eccd2523450d291f241869152d02c7e14af68000006110a8565b565b80600960008473ffffffffffffffffffffffffffffffffffffffff1673ffffffffffffffffffffffffffffffffffffffff1681526020019081526020016000208190555060004301600a60008473ffffffffffffffffffffffffffffffffffffffff1673ffffffffffffffffffffffffffffffffffffffff168152602001908152602001600020819055508060076000828254019250508190555060075460016000828254019250508190555050505600a165627a7a7230582079e049836ecf07c6c7b792ca8a1591cb425193602999794019916a333095b6380029",
  "source": "pragma solidity ^0.4.18;\n\n/*\n\n  BASIC ERC20 Sale Contract\n\n  Create this Sale contract first!\n\n     Sale(address ethwallet)   // this will send the received ETH funds to this address\n\n*/\n\n\ncontract ERC20 {\n  uint public totalSupply;\n  function balanceOf(address who) constant returns (uint);\n  function allowance(address owner, address spender) constant returns (uint);\n  function transfer(address to, uint value) returns (bool ok);\n  function transferFrom(address from, address to, uint value) returns (bool ok);\n  function approve(address spender, uint value) returns (bool ok);\n  function mintToken(address to, uint256 value) returns (uint256);\n  function changeTransfer(bool allowed);\n}\n\n\ncontract Sale {\n\n    uint256 public maxMintable;\n    uint256 public totalMinted;\n    uint public endBlock;\n    uint public startBlock;\n    uint public exchangeRate;\n    bool public isFunding;\n    ERC20 public Token;\n    address public ETHWallet;\n    uint256 public heldTotal;\n\n    bool private configSet;\n    address public creator;\n\n    mapping (address => uint256) public heldTokens;\n    mapping (address => uint) public heldTimeline;\n\n    event Contribution(address from, uint256 amount);\n    event ReleaseTokens(address from, uint256 amount);\n\n    function Sale(address _wallet) {\n        startBlock = block.number;\n        maxMintable = 4000000000000000000000000; // 3 million max sellable (18 decimals)\n        ETHWallet = _wallet;\n        isFunding = true;\n        creator = msg.sender;\n        createHeldCoins();\n        exchangeRate = 600;\n    }\n\n    // setup function to be ran only 1 time\n    // setup token address\n    // setup end Block number\n    function setup(address token_address, uint end_block) {\n        require(!configSet);\n        Token = ERC20(token_address);\n        endBlock = end_block;\n        configSet = true;\n    }\n\n    function closeSale() external {\n      require(msg.sender==creator);\n      isFunding = false;\n    }\n\n    function () payable {\n        require(msg.value>0);\n        require(isFunding);\n        require(block.number <= endBlock);\n        uint256 amount = msg.value * exchangeRate;\n        uint256 total = totalMinted + amount;\n        require(total<=maxMintable);\n        totalMinted += total;\n        ETHWallet.transfer(msg.value);\n        Token.mintToken(msg.sender, amount);\n        Contribution(msg.sender, amount);\n    }\n\n    // CONTRIBUTE FUNCTION\n    // converts ETH to TOKEN and sends new TOKEN to the sender\n    function contribute() external payable {\n        require(msg.value>0);\n        require(isFunding);\n        require(block.number <= endBlock);\n        uint256 amount = msg.value * exchangeRate;\n        uint256 total = totalMinted + amount;\n        require(total<=maxMintable);\n        totalMinted += total;\n        ETHWallet.transfer(msg.value);\n        Token.mintToken(msg.sender, amount);\n        Contribution(msg.sender, amount);\n    }\n\n    // update the ETH/COIN rate\n    function updateRate(uint256 rate) external {\n        require(msg.sender==creator);\n        require(isFunding);\n        exchangeRate = rate;\n    }\n\n    // change creator address\n    function changeCreator(address _creator) external {\n        require(msg.sender==creator);\n        creator = _creator;\n    }\n\n    // change transfer status for ERC20 token\n    function changeTransferStats(bool _allowed) external {\n        require(msg.sender==creator);\n        Token.changeTransfer(_allowed);\n    }\n\n    // internal function that allocates a specific amount of TOKENS at a specific block number.\n    // only ran 1 time on initialization\n    function createHeldCoins() internal {\n        // TOTAL SUPPLY = 5,000,000\n        createHoldToken(msg.sender, 1000);\n        createHoldToken(0x4f70Dc5Da5aCf5e71905c3a8473a6D8a7E7Ba4c5, 100000000000000000000000);\n        createHoldToken(0x393c82c7Ae55B48775f4eCcd2523450d291f2418, 100000000000000000000000);\n    }\n\n    // public function to get the amount of tokens held for an address\n    function getHeldCoin(address _address) public constant returns (uint256) {\n        return heldTokens[_address];\n    }\n\n    // function to create held tokens for developer\n    function createHoldToken(address _to, uint256 amount) internal {\n        heldTokens[_to] = amount;\n        heldTimeline[_to] = block.number + 0;\n        heldTotal += amount;\n        totalMinted += heldTotal;\n    }\n\n    // function to release held tokens for developers\n    function releaseHeldCoins() external {\n        uint256 held = heldTokens[msg.sender];\n        uint heldBlock = heldTimeline[msg.sender];\n        require(!isFunding);\n        require(held >= 0);\n        require(block.number >= heldBlock);\n        heldTokens[msg.sender] = 0;\n        heldTimeline[msg.sender] = 0;\n        Token.mintToken(msg.sender, held);\n        ReleaseTokens(msg.sender, held);\n    }\n\n\n}\n",
  "sourcePath": "/Users/kilimchoi/Desktop/ethereum-ico-contract/contracts/Sale.sol",
  "compiler": {
    "name": "solc",
    "version": "0.4.18+commit.9cf6e910.Emscripten.clang"
  },
  "schemaVersion": "1.0.1",
  "updatedAt": "2018-04-25T00:32:42.963Z"
}