{
  "contractName": "Token",
  "abi": [
    {
      "constant": true,
      "inputs": [],
      "name": "name",
      "outputs": [
        {
          "name": "",
          "type": "string"
        }
      ],
      "payable": false,
      "stateMutability": "view",
      "type": "function"
    },
    {
      "constant": false,
      "inputs": [
        {
          "name": "allowed",
          "type": "bool"
        }
      ],
      "name": "changeTransfer",
      "outputs": [],
      "payable": false,
      "stateMutability": "nonpayable",
      "type": "function"
    },
    {
      "constant": false,
      "inputs": [
        {
          "name": "_spender",
          "type": "address"
        },
        {
          "name": "_value",
          "type": "uint256"
        }
      ],
      "name": "approve",
      "outputs": [
        {
          "name": "success",
          "type": "bool"
        }
      ],
      "payable": false,
      "stateMutability": "nonpayable",
      "type": "function"
    },
    {
      "constant": true,
      "inputs": [],
      "name": "totalSupply",
      "outputs": [
        {
          "name": "",
          "type": "uint256"
        }
      ],
      "payable": false,
      "stateMutability": "view",
      "type": "function"
    },
    {
      "constant": false,
      "inputs": [
        {
          "name": "from",
          "type": "address"
        },
        {
          "name": "to",
          "type": "address"
        },
        {
          "name": "value",
          "type": "uint256"
        }
      ],
      "name": "transferFrom",
      "outputs": [
        {
          "name": "",
          "type": "bool"
        }
      ],
      "payable": false,
      "stateMutability": "nonpayable",
      "type": "function"
    },
    {
      "constant": true,
      "inputs": [],
      "name": "INITIAL_SUPPLY",
      "outputs": [
        {
          "name": "",
          "type": "uint256"
        }
      ],
      "payable": false,
      "stateMutability": "view",
      "type": "function"
    },
    {
      "constant": true,
      "inputs": [],
      "name": "decimals",
      "outputs": [
        {
          "name": "",
          "type": "uint8"
        }
      ],
      "payable": false,
      "stateMutability": "view",
      "type": "function"
    },
    {
      "constant": true,
      "inputs": [],
      "name": "transferEnabled",
      "outputs": [
        {
          "name": "",
          "type": "bool"
        }
      ],
      "payable": false,
      "stateMutability": "view",
      "type": "function"
    },
    {
      "constant": true,
      "inputs": [],
      "name": "version",
      "outputs": [
        {
          "name": "",
          "type": "string"
        }
      ],
      "payable": false,
      "stateMutability": "view",
      "type": "function"
    },
    {
      "constant": true,
      "inputs": [
        {
          "name": "_owner",
          "type": "address"
        }
      ],
      "name": "balanceOf",
      "outputs": [
        {
          "name": "balance",
          "type": "uint256"
        }
      ],
      "payable": false,
      "stateMutability": "view",
      "type": "function"
    },
    {
      "constant": false,
      "inputs": [
        {
          "name": "to",
          "type": "address"
        },
        {
          "name": "amount",
          "type": "uint256"
        }
      ],
      "name": "mintToken",
      "outputs": [
        {
          "name": "success",
          "type": "bool"
        }
      ],
      "payable": false,
      "stateMutability": "nonpayable",
      "type": "function"
    },
    {
      "constant": true,
      "inputs": [],
      "name": "owner",
      "outputs": [
        {
          "name": "",
          "type": "address"
        }
      ],
      "payable": false,
      "stateMutability": "view",
      "type": "function"
    },
    {
      "constant": true,
      "inputs": [],
      "name": "symbol",
      "outputs": [
        {
          "name": "",
          "type": "string"
        }
      ],
      "payable": false,
      "stateMutability": "view",
      "type": "function"
    },
    {
      "constant": true,
      "inputs": [],
      "name": "allowTransfer",
      "outputs": [
        {
          "name": "",
          "type": "bool"
        }
      ],
      "payable": false,
      "stateMutability": "view",
      "type": "function"
    },
    {
      "constant": false,
      "inputs": [
        {
          "name": "to",
          "type": "address"
        },
        {
          "name": "value",
          "type": "uint256"
        }
      ],
      "name": "transfer",
      "outputs": [
        {
          "name": "",
          "type": "bool"
        }
      ],
      "payable": false,
      "stateMutability": "nonpayable",
      "type": "function"
    },
    {
      "constant": false,
      "inputs": [
        {
          "name": "_spender",
          "type": "address"
        },
        {
          "name": "_value",
          "type": "uint256"
        },
        {
          "name": "_extraData",
          "type": "bytes"
        }
      ],
      "name": "approveAndCall",
      "outputs": [
        {
          "name": "success",
          "type": "bool"
        }
      ],
      "payable": false,
      "stateMutability": "nonpayable",
      "type": "function"
    },
    {
      "constant": true,
      "inputs": [
        {
          "name": "_owner",
          "type": "address"
        },
        {
          "name": "_spender",
          "type": "address"
        }
      ],
      "name": "allowance",
      "outputs": [
        {
          "name": "remaining",
          "type": "uint256"
        }
      ],
      "payable": false,
      "stateMutability": "view",
      "type": "function"
    },
    {
      "constant": true,
      "inputs": [],
      "name": "mintableAddress",
      "outputs": [
        {
          "name": "",
          "type": "address"
        }
      ],
      "payable": false,
      "stateMutability": "view",
      "type": "function"
    },
    {
      "constant": false,
      "inputs": [],
      "name": "enableTransfer",
      "outputs": [],
      "payable": false,
      "stateMutability": "nonpayable",
      "type": "function"
    },
    {
      "constant": false,
      "inputs": [
        {
          "name": "newOwner",
          "type": "address"
        }
      ],
      "name": "transferOwnership",
      "outputs": [],
      "payable": false,
      "stateMutability": "nonpayable",
      "type": "function"
    },
    {
      "inputs": [
        {
          "name": "sale_address",
          "type": "address"
        }
      ],
      "payable": false,
      "stateMutability": "nonpayable",
      "type": "constructor"
    },
    {
      "anonymous": false,
      "inputs": [
        {
          "indexed": true,
          "name": "previousOwner",
          "type": "address"
        },
        {
          "indexed": true,
          "name": "newOwner",
          "type": "address"
        }
      ],
      "name": "OwnershipTransferred",
      "type": "event"
    },
    {
      "anonymous": false,
      "inputs": [
        {
          "indexed": true,
          "name": "_from",
          "type": "address"
        },
        {
          "indexed": true,
          "name": "_to",
          "type": "address"
        },
        {
          "indexed": false,
          "name": "_value",
          "type": "uint256"
        }
      ],
      "name": "Transfer",
      "type": "event"
    },
    {
      "anonymous": false,
      "inputs": [
        {
          "indexed": true,
          "name": "_owner",
          "type": "address"
        },
        {
          "indexed": true,
          "name": "_spender",
          "type": "address"
        },
        {
          "indexed": false,
          "name": "_value",
          "type": "uint256"
        }
      ],
      "name": "Approval",
      "type": "event"
    }
  ],
  "bytecode": "0x60606040526040805190810160405280600681526020017f456d70797265000000000000000000000000000000000000000000000000000081525060059080519060200190620000519291906200033d565b506012600660006101000a81548160ff021916908360ff1602179055506040805190810160405280600481526020017f454d50520000000000000000000000000000000000000000000000000000000081525060079080519060200190620000bb9291906200033d565b506040805190810160405280600881526020017f454d505220302e3100000000000000000000000000000000000000000000000081525060089080519060200190620001099291906200033d565b506000600960146101000a81548160ff02191690831515021790555034156200013157600080fd5b60405160208062001c168339810160405280805190602001909190505033600460006101000a81548173ffffffffffffffffffffffffffffffffffffffff021916908373ffffffffffffffffffffffffffffffffffffffff1602179055506000600260003373ffffffffffffffffffffffffffffffffffffffff1673ffffffffffffffffffffffffffffffffffffffff16815260200190815260200160002081905550600080819055506005809080546001816001161561010002031660029004620001ff929190620003c4565b50600660009054906101000a900460ff16600660006101000a81548160ff021916908360ff16021790555060078090805460018160011615610100020316600290046200024e929190620003c4565b5080600960006101000a81548173ffffffffffffffffffffffffffffffffffffffff021916908373ffffffffffffffffffffffffffffffffffffffff16021790555060018060006101000a81548160ff021916908315150217905550620002c8620002cf64010000000002620016f2176401000000009004565b506200047a565b6000600660009054906101000a900460ff1660ff16600a0a633b9aca0002905080600260003073ffffffffffffffffffffffffffffffffffffffff1673ffffffffffffffffffffffffffffffffffffffff168152602001908152602001600020819055508060008190555050565b828054600181600116156101000203166002900490600052602060002090601f016020900481019282601f106200038057805160ff1916838001178555620003b1565b82800160010185558215620003b1579182015b82811115620003b057825182559160200191906001019062000393565b5b509050620003c0919062000452565b5090565b828054600181600116156101000203166002900490600052602060002090601f016020900481019282601f10620003ff57805485556200043f565b828001600101855582156200043f57600052602060002091601f016020900482015b828111156200043e57825482559160010191906001019062000421565b5b5090506200044e919062000452565b5090565b6200047791905b808211156200047357600081600090555060010162000459565b5090565b90565b61178c806200048a6000396000f300606060405260043610610112576000357c0100000000000000000000000000000000000000000000000000000000900463ffffffff16806306fdde031461011757806309010e53146101a5578063095ea7b3146101ca57806318160ddd1461022457806323b872dd1461024d5780632ff2e9dc146102c6578063313ce567146102ef5780634cd412d51461031e57806354fd4d501461034b57806370a08231146103d957806379c65068146104265780638da5cb5b1461048057806395d89b41146104d55780639b08a22f14610563578063a9059cbb14610590578063cae9ca51146105ea578063dd62ed3e14610687578063df4c2164146106f3578063f1b50c1d14610748578063f2fde38b1461075d575b600080fd5b341561012257600080fd5b61012a610796565b6040518080602001828103825283818151815260200191508051906020019080838360005b8381101561016a57808201518184015260208101905061014f565b50505050905090810190601f1680156101975780820380516001836020036101000a031916815260200191505b509250505060405180910390f35b34156101b057600080fd5b6101c860048080351515906020019091905050610834565b005b34156101d557600080fd5b61020a600480803573ffffffffffffffffffffffffffffffffffffffff169060200190919080359060200190919050506108ad565b604051808215151515815260200191505060405180910390f35b341561022f57600080fd5b6102376109ba565b6040518082815260200191505060405180910390f35b341561025857600080fd5b6102ac600480803573ffffffffffffffffffffffffffffffffffffffff1690602001909190803573ffffffffffffffffffffffffffffffffffffffff169060200190919080359060200190919050506109c0565b604051808215151515815260200191505060405180910390f35b34156102d157600080fd5b6102d96109f1565b6040518082815260200191505060405180910390f35b34156102fa57600080fd5b610302610a10565b604051808260ff1660ff16815260200191505060405180910390f35b341561032957600080fd5b610331610a23565b604051808215151515815260200191505060405180910390f35b341561035657600080fd5b61035e610a36565b6040518080602001828103825283818151815260200191508051906020019080838360005b8381101561039e578082015181840152602081019050610383565b50505050905090810190601f1680156103cb5780820380516001836020036101000a031916815260200191505b509250505060405180910390f35b34156103e457600080fd5b610410600480803573ffffffffffffffffffffffffffffffffffffffff16906020019091905050610ad4565b6040518082815260200191505060405180910390f35b341561043157600080fd5b610466600480803573ffffffffffffffffffffffffffffffffffffffff16906020019091908035906020019091905050610b1d565b604051808215151515815260200191505060405180910390f35b341561048b57600080fd5b610493610cd2565b604051808273ffffffffffffffffffffffffffffffffffffffff1673ffffffffffffffffffffffffffffffffffffffff16815260200191505060405180910390f35b34156104e057600080fd5b6104e8610cf8565b6040518080602001828103825283818151815260200191508051906020019080838360005b8381101561052857808201518184015260208101905061050d565b50505050905090810190601f1680156105555780820380516001836020036101000a031916815260200191505b509250505060405180910390f35b341561056e57600080fd5b610576610d96565b604051808215151515815260200191505060405180910390f35b341561059b57600080fd5b6105d0600480803573ffffffffffffffffffffffffffffffffffffffff16906020019091908035906020019091905050610da9565b604051808215151515815260200191505060405180910390f35b34156105f557600080fd5b61066d600480803573ffffffffffffffffffffffffffffffffffffffff1690602001909190803590602001909190803590602001908201803590602001908080601f01602080910402602001604051908101604052809392919081815260200183838082843782019150505050505091905050610dd8565b604051808215151515815260200191505060405180910390f35b341561069257600080fd5b6106dd600480803573ffffffffffffffffffffffffffffffffffffffff1690602001909190803573ffffffffffffffffffffffffffffffffffffffff16906020019091905050611079565b6040518082815260200191505060405180910390f35b34156106fe57600080fd5b610706611100565b604051808273ffffffffffffffffffffffffffffffffffffffff1673ffffffffffffffffffffffffffffffffffffffff16815260200191505060405180910390f35b341561075357600080fd5b61075b611126565b005b341561076857600080fd5b610794600480803573ffffffffffffffffffffffffffffffffffffffff1690602001909190505061119f565b005b60058054600181600116156101000203166002900480601f01602080910402602001604051908101604052809291908181526020018280546001816001161561010002031660029004801561082c5780601f106108015761010080835404028352916020019161082c565b820191906000526020600020905b81548152906001019060200180831161080f57829003601f168201915b505050505081565b600960009054906101000a900473ffffffffffffffffffffffffffffffffffffffff1673ffffffffffffffffffffffffffffffffffffffff163373ffffffffffffffffffffffffffffffffffffffff1614151561089057600080fd5b80600160006101000a81548160ff02191690831515021790555050565b6000600160009054906101000a900460ff1615156108ca57600080fd5b81600360003373ffffffffffffffffffffffffffffffffffffffff1673ffffffffffffffffffffffffffffffffffffffff16815260200190815260200160002060008573ffffffffffffffffffffffffffffffffffffffff1673ffffffffffffffffffffffffffffffffffffffff168152602001908152602001600020819055508273ffffffffffffffffffffffffffffffffffffffff163373ffffffffffffffffffffffffffffffffffffffff167f8c5be1e5ebec7d5bd14f71427d1e84f3dd0314c0f7b2291e5b200ac8c7c3b925846040518082815260200191505060405180910390a36001905092915050565b60005481565b6000600960149054906101000a900460ff1615156109dd57600080fd5b6109e88484846112f7565b90509392505050565b600660009054906101000a900460ff1660ff16600a0a633b9aca000281565b600660009054906101000a900460ff1681565b600960149054906101000a900460ff1681565b60088054600181600116156101000203166002900480601f016020809104026020016040519081016040528092919081815260200182805460018160011615610100020316600290048015610acc5780601f10610aa157610100808354040283529160200191610acc565b820191906000526020600020905b815481529060010190602001808311610aaf57829003601f168201915b505050505081565b6000600260008373ffffffffffffffffffffffffffffffffffffffff1673ffffffffffffffffffffffffffffffffffffffff168152602001908152602001600020549050919050565b6000600960009054906101000a900473ffffffffffffffffffffffffffffffffffffffff1673ffffffffffffffffffffffffffffffffffffffff163373ffffffffffffffffffffffffffffffffffffffff16141515610b7b57600080fd5b81600260003073ffffffffffffffffffffffffffffffffffffffff1673ffffffffffffffffffffffffffffffffffffffff1681526020019081526020016000205410151515610bc957600080fd5b81600260003073ffffffffffffffffffffffffffffffffffffffff1673ffffffffffffffffffffffffffffffffffffffff1681526020019081526020016000206000828254039250508190555081600260008573ffffffffffffffffffffffffffffffffffffffff1673ffffffffffffffffffffffffffffffffffffffff168152602001908152602001600020600082825401925050819055508273ffffffffffffffffffffffffffffffffffffffff163073ffffffffffffffffffffffffffffffffffffffff167fddf252ad1be2c89b69c2b068fc378daa952ba7f163c4a11628f55a4df523b3ef846040518082815260200191505060405180910390a36001905092915050565b600460009054906101000a900473ffffffffffffffffffffffffffffffffffffffff1681565b60078054600181600116156101000203166002900480601f016020809104026020016040519081016040528092919081815260200182805460018160011615610100020316600290048015610d8e5780601f10610d6357610100808354040283529160200191610d8e565b820191906000526020600020905b815481529060010190602001808311610d7157829003601f168201915b505050505081565b600160009054906101000a900460ff1681565b6000600960149054906101000a900460ff161515610dc657600080fd5b610dd0838361157e565b905092915050565b600082600360003373ffffffffffffffffffffffffffffffffffffffff1673ffffffffffffffffffffffffffffffffffffffff16815260200190815260200160002060008673ffffffffffffffffffffffffffffffffffffffff1673ffffffffffffffffffffffffffffffffffffffff168152602001908152602001600020819055508373ffffffffffffffffffffffffffffffffffffffff163373ffffffffffffffffffffffffffffffffffffffff167f8c5be1e5ebec7d5bd14f71427d1e84f3dd0314c0f7b2291e5b200ac8c7c3b925856040518082815260200191505060405180910390a38373ffffffffffffffffffffffffffffffffffffffff1660405180807f72656365697665417070726f76616c28616464726573732c75696e743235362c81526020017f616464726573732c627974657329000000000000000000000000000000000000815250602e01905060405180910390207c01000000000000000000000000000000000000000000000000000000009004338530866040518563ffffffff167c0100000000000000000000000000000000000000000000000000000000028152600401808573ffffffffffffffffffffffffffffffffffffffff1673ffffffffffffffffffffffffffffffffffffffff1681526020018481526020018373ffffffffffffffffffffffffffffffffffffffff1673ffffffffffffffffffffffffffffffffffffffff168152602001828051906020019080838360005b83811015611019578082015181840152602081019050610ffe565b50505050905090810190601f1680156110465780820380516001836020036101000a031916815260200191505b5094505050505060006040518083038160008761646e5a03f192505050151561106e57600080fd5b600190509392505050565b6000600360008473ffffffffffffffffffffffffffffffffffffffff1673ffffffffffffffffffffffffffffffffffffffff16815260200190815260200160002060008373ffffffffffffffffffffffffffffffffffffffff1673ffffffffffffffffffffffffffffffffffffffff16815260200190815260200160002054905092915050565b600960009054906101000a900473ffffffffffffffffffffffffffffffffffffffff1681565b600460009054906101000a900473ffffffffffffffffffffffffffffffffffffffff1673ffffffffffffffffffffffffffffffffffffffff163373ffffffffffffffffffffffffffffffffffffffff1614151561118257600080fd5b6001600960146101000a81548160ff021916908315150217905550565b600460009054906101000a900473ffffffffffffffffffffffffffffffffffffffff1673ffffffffffffffffffffffffffffffffffffffff163373ffffffffffffffffffffffffffffffffffffffff161415156111fb57600080fd5b600073ffffffffffffffffffffffffffffffffffffffff168173ffffffffffffffffffffffffffffffffffffffff161415151561123757600080fd5b8073ffffffffffffffffffffffffffffffffffffffff16600460009054906101000a900473ffffffffffffffffffffffffffffffffffffffff1673ffffffffffffffffffffffffffffffffffffffff167f8be0079c531659141344cd1fd0a4f28419497f9722a3daafe3b4186f6b6457e060405160405180910390a380600460006101000a81548173ffffffffffffffffffffffffffffffffffffffff021916908373ffffffffffffffffffffffffffffffffffffffff16021790555050565b6000600160009054906101000a900460ff16151561131457600080fd5b81600260008673ffffffffffffffffffffffffffffffffffffffff1673ffffffffffffffffffffffffffffffffffffffff16815260200190815260200160002054101580156113df575081600360008673ffffffffffffffffffffffffffffffffffffffff1673ffffffffffffffffffffffffffffffffffffffff16815260200190815260200160002060003373ffffffffffffffffffffffffffffffffffffffff1673ffffffffffffffffffffffffffffffffffffffff1681526020019081526020016000205410155b15156113ea57600080fd5b81600260008573ffffffffffffffffffffffffffffffffffffffff1673ffffffffffffffffffffffffffffffffffffffff1681526020019081526020016000206000828254019250508190555081600260008673ffffffffffffffffffffffffffffffffffffffff1673ffffffffffffffffffffffffffffffffffffffff1681526020019081526020016000206000828254039250508190555081600360008673ffffffffffffffffffffffffffffffffffffffff1673ffffffffffffffffffffffffffffffffffffffff16815260200190815260200160002060003373ffffffffffffffffffffffffffffffffffffffff1673ffffffffffffffffffffffffffffffffffffffff168152602001908152602001600020600082825403925050819055508273ffffffffffffffffffffffffffffffffffffffff168473ffffffffffffffffffffffffffffffffffffffff167fddf252ad1be2c89b69c2b068fc378daa952ba7f163c4a11628f55a4df523b3ef846040518082815260200191505060405180910390a3600190509392505050565b6000600160009054906101000a900460ff16151561159b57600080fd5b81600260003373ffffffffffffffffffffffffffffffffffffffff1673ffffffffffffffffffffffffffffffffffffffff16815260200190815260200160002054101515156115e957600080fd5b81600260003373ffffffffffffffffffffffffffffffffffffffff1673ffffffffffffffffffffffffffffffffffffffff1681526020019081526020016000206000828254039250508190555081600260008573ffffffffffffffffffffffffffffffffffffffff1673ffffffffffffffffffffffffffffffffffffffff168152602001908152602001600020600082825401925050819055508273ffffffffffffffffffffffffffffffffffffffff163373ffffffffffffffffffffffffffffffffffffffff167fddf252ad1be2c89b69c2b068fc378daa952ba7f163c4a11628f55a4df523b3ef846040518082815260200191505060405180910390a36001905092915050565b6000600660009054906101000a900460ff1660ff16600a0a633b9aca0002905080600260003073ffffffffffffffffffffffffffffffffffffffff1673ffffffffffffffffffffffffffffffffffffffff1681526020019081526020016000208190555080600081905550505600a165627a7a7230582018a60edab874d179f2172587e25cfd27ffd2b15ac0f25e432ed9b12ab1023d550029",
  "source": "pragma solidity ^0.4.18;\n\nimport \"./Ownable.sol\";\n\n/*\n\nBASIC ERC20 Crowdsale ICO ERC20 Token\n\nCreate this Token contract AFTER you already have the Sale contract created.\n\n   Token(address sale_address)   // creates token and links the Sale contract\n\n*/\n\n\ncontract BasicToken {\n    uint256 public totalSupply;\n    bool public allowTransfer;\n\n    function balanceOf(address _owner) constant returns (uint256 balance);\n    function transfer(address _to, uint256 _value) returns (bool success);\n    function transferFrom(address _from, address _to, uint256 _value) returns (bool success);\n    function approve(address _spender, uint256 _value) returns (bool success);\n    function allowance(address _owner, address _spender) constant returns (uint256 remaining);\n\n    event Transfer(address indexed _from, address indexed _to, uint256 _value);\n    event Approval(address indexed _owner, address indexed _spender, uint256 _value);\n}\n\ncontract StandardToken is BasicToken {\n\n    function transfer(address _to, uint256 _value) returns (bool success) {\n        require(allowTransfer);\n        require(balances[msg.sender] >= _value);\n        balances[msg.sender] -= _value;\n        balances[_to] += _value;\n        Transfer(msg.sender, _to, _value);\n        return true;\n    }\n\n    function transferFrom(address _from, address _to, uint256 _value) returns (bool success) {\n        require(allowTransfer);\n        require(balances[_from] >= _value && allowed[_from][msg.sender] >= _value);\n        balances[_to] += _value;\n        balances[_from] -= _value;\n        allowed[_from][msg.sender] -= _value;\n        Transfer(_from, _to, _value);\n        return true;\n    }\n\n    function balanceOf(address _owner) constant returns (uint256 balance) {\n        return balances[_owner];\n    }\n\n    function approve(address _spender, uint256 _value) returns (bool success) {\n        require(allowTransfer);\n        allowed[msg.sender][_spender] = _value;\n        Approval(msg.sender, _spender, _value);\n        return true;\n    }\n\n    function allowance(address _owner, address _spender) constant returns (uint256 remaining) {\n      return allowed[_owner][_spender];\n    }\n\n    mapping (address => uint256) balances;\n    mapping (address => mapping (address => uint256)) allowed;\n}\n\n\ncontract Token is StandardToken, Ownable {\n\n    string public name = \"Empyre\";\n    uint8 public decimals = 18;\n    string public symbol = \"EMPR\";\n    string public version = 'EMPR 0.1';\n    uint256 public constant INITIAL_SUPPLY = 1000000000 * (10 ** uint256(decimals));\n    address public mintableAddress;\n    \n    // Enable transfers after conclusion of token offering\n    bool public transferEnabled = false;\n\n    modifier onlyWhenTransferAllowed() {\n        require(transferEnabled);\n        _;\n    }\n\n    function Token(address sale_address) {\n        balances[msg.sender] = 0;\n        totalSupply = 0;\n        name = name;\n        decimals = decimals;\n        symbol = symbol;\n        mintableAddress = sale_address;\n        allowTransfer = true;\n        createTokens();\n    }\n\n    // creates all tokens 5 million\n    // this address will hold all tokens\n    // all community contrubutions coins will be taken from this address\n    function createTokens() internal {\n        uint256 total = INITIAL_SUPPLY;\n        balances[this] = total;\n        totalSupply = total;\n    }\n\n    /**\n     * Enable transfers\n     */\n    function enableTransfer() external onlyOwner {\n        transferEnabled = true;\n    }\n\n    function changeTransfer(bool allowed) external {\n        require(msg.sender == mintableAddress);\n        allowTransfer = allowed;\n    }\n\n    function transfer(address to, uint256 value) public onlyWhenTransferAllowed returns (bool) {\n        return super.transfer(to, value);\n    }\n\n    /**\n     * Transfer from `from` account to `to` account using allowance in `from` account to the sender\n     *\n     * @param from Origin address\n     * @param to Destination address\n     * @param value Amount of docks to send\n     */\n    function transferFrom(address from, address to, uint256 value) public onlyWhenTransferAllowed returns (bool) {\n        return super.transferFrom(from, to, value);\n    }\n\n    function mintToken(address to, uint256 amount) returns (bool success) {\n        require(msg.sender == mintableAddress);\n        require(balances[this] >= amount);\n        balances[this] -= amount;\n        balances[to] += amount;\n        Transfer(this, to, amount);\n        return true;\n    }\n\n    function approveAndCall(address _spender, uint256 _value, bytes _extraData) returns (bool success) {\n        allowed[msg.sender][_spender] = _value;\n        Approval(msg.sender, _spender, _value);\n\n        require(_spender.call(bytes4(bytes32(keccak256(\"receiveApproval(address,uint256,address,bytes)\"))), msg.sender, _value, this, _extraData));\n        return true;\n    }\n}\n",
  "sourcePath": "/Users/kilimchoi/Desktop/ethereum-ico-contract/contracts/Token.sol",
  "compiler": {
    "name": "solc",
    "version": "0.4.18+commit.9cf6e910.Emscripten.clang"
  },
  "schemaVersion": "1.0.1",
  "updatedAt": "2018-04-25T02:54:29.330Z"
}